:100000000C9434000C9451000C9451000C94510049
:100010000C9451000C9451000C9451000C9451001C
:100020000C9451000C9451000C9451000C9451000C
:100030000C9451000C9451000C9451000C945100FC
:100040000C9451000C9451000C9478000C945100C5
:100050000C9453000C9451000C9451000C945100DA
:100060000C9451000C94510011241FBECFEFD8E026
:10007000DEBFCDBF11E0A0E0B1E0E8E0F2E002C0F9
:1000800005900D92A431B107D9F722E0A4E1B1E0C7
:1000900001C01D92A831B207E1F70E94E0000C9464
:1000A00002010C9400001F920F920FB60F921124C0
:1000B0008F93EF93FF93E091150180911401E8175E
:1000C00079F0F0E0E856FE4F80818093C600809181
:1000D00015018F5F1AF08093150102C0109215016F
:1000E000FF91EF918F910F900FBE0F901F90189579
:1000F0001F920F920FB60F9211248F939F93EF933D
:10010000FF93809116019091C600E82FF0E0E85E21
:10011000FE4F90838F5F1AF08093160102C01092F9
:100120001601FF91EF919F918F910F900FBE0F904D
:100130001F90189590911401E92FF0E0E856FE4FBA
:1001400080839F5F1AF09093140108951092140118
:1001500008951F93CF93DF93EC0110E007C0FE01D9
:10016000E20FF31F80810E949A001F5F212F30E071
:10017000FE0101900020E9F73197EC1BFD0B2E17D3
:100180003F0768F38091C00085FD1092C600DF91A3
:10019000CF911F91089590911701809116019817A2
:1001A00069F0E92FF0E0E85EFE4F80819F5F1AF072
:1001B00090931701089510921701089580E0089513
:1001C0001092C50087E68093C40088ED8093C1003B
:1001D00086E08093C20080E284B97894DFEDC0E2CB
:1001E0000E94CB00813331F4C5B980E091E00E94D8
:1001F000A900F6CF8033A1F7D5B989E091E00E943C
:08020000A900EECFF894FFCF36
:100208004C4544204F6E0A0D004C4544204F66660D
:040218000A0D0000CB
:00000001FF
