S00C0000756172742E737265635C
S11300000C9434000C9451000C9451000C94510045
S11300100C9451000C9451000C9451000C94510018
S11300200C9451000C9451000C9451000C94510008
S11300300C9451000C9451000C9451000C945100F8
S11300400C9451000C9451000C94E3000C94510056
S11300500C94BE000C9451000C9451000C9451006B
S11300600C9451000C94510011241FBECFEFD8E022
S1130070DEBFCDBF11E0A0E0B1E0EEE0F2E002C0EF
S113008005900D92A431B107D9F722E0A4E1B1E0C3
S113009001C01D92A831B207E1F70E9453000C94ED
S11300A005010C9400000E946C0080E284B97894ED
S11300B0DFEDC0E20E94A900813331F4C5B980E0CC
S11300C091E00E948700F6CF8033A1F7D5B989E08B
S11300D091E00E948700EECF1092C50087E68093DE
S11300E0C40088ED8093C10086E08093C200089527
S11300F090911601E92FF0E0E856FE4F80839F5F50
S11301001AF09093160108951092160108951F9302
S1130110CF93DF93EC0110E007C0FE01E20FF31F61
S113012080810E9478001F5F212F30E0FE01019042
S11301300020E9F73197EC1BFD0B2E173F0768F3FE
S11301408091C00085FD1092C600DF91CF911F9170
S113015008959091150180911401981769F0E92F81
S1130160F0E0E85EFE4F80819F5F1AF090931501E6
S1130170089510921501089580E008951F920F923A
S11301800FB60F9211248F93EF93FF93E091170111
S113019080911601E81779F0F0E0E856FE4F80816F
S11301A08093C600809117018F5F1AF08093170126
S11301B002C010921701FF91EF918F910F900FBE23
S11301C00F901F9018951F920F920FB60F92112443
S11301D08F939F93EF93FF93809114019091C600A6
S11301E0E82FF0E0E85EFE4F90838F5F1AF0809373
S11301F0140102C010921401FF91EF919F918F910D
S11102000F900FBE0F901F901895F894FFCF2B
S113020E4C4544204F6E0A0D004C4544204F666603
S107021E0A0D0000C1
S9030000FC
