:100000000C9434000C9453000C9451000C94510047
:100010000C9451000C9451000C9451000C9451001C
:100020000C9451000C9451000C9451000C9451000C
:100030000C9451000C9451000C9451000C945100FC
:100040000C9497000C9451000C946F010C94510087
:100050000C944A010C9451000C9451000C945100E2
:100060000C9451000C94510011241FBECFEFD8E026
:10007000DEBFCDBF11E0A0E0B1E0E4ECF3E002C0F0
:1000800005900D92A031B107D9F722E0A0E1B1E0CF
:1000900001C01D92AA31B207E1F70E94BC000C9486
:1000A000E0010C9400001F920F920FB60F921124E2
:1000B0002F933F936F937F938F939F93AF93BF93B0
:1000C00080911301813031F580911601811109C0B1
:1000D00081E08093160116BC109215011092140154
:1000E00019C01092160186B520E030E0309114015D
:1000F000280F311DAFE9B6E40E94910192958295D7
:100100008F7089279F708927909319018093180118
:1001100010921301BF91AF919F918F917F916F9139
:100120003F912F910F900FBE0F901F9018951F9227
:100130000F920FB60F9211248F939F938091160107
:10014000813099F48091140190911501019690935A
:100150001501809314018C35910538F0109213012C
:100160001092160181E0809317019F918F910F905B
:100170000FBE0F901F901895CF93DF9300D0CDB78F
:10018000DEB7E9E6F0E0808181608083E89A85B59A
:10019000816085BD16BCEEE6F0E0808181608083E1
:1001A0000E940D01789480E091E00E942801539A0A
:1001B000529811E04AE050E0BE016F5F7F4F80919E
:1001C0001801909119010E94A001CE0101960E9490
:1001D000280187E091E00E94280180911701813079
:1001E00021F48AE091E00E9428018091130181119D
:1001F000E1CF83ED90E30197F1F700C000008BB1F0
:100200001BB800005C9A93E09A95F1F700005C98A7
:100210001093130110921701CDCF1092C50087E6FD
:100220008093C40088ED8093C10086E08093C20073
:10023000089590911101E92FF0E0E656FE4F80837A
:100240009F5F1AF090931101089510921101089583
:100250001F93CF93DF93EC0110E007C0FE01E20F84
:10026000F31F80810E9419011F5F212F30E0FE01E2
:1002700001900020E9F73197EC1BFD0B2E173F078B
:1002800068F38091C00085FD1092C600DF91CF9188
:100290001F9108951F920F920FB60F9211248F9302
:1002A000EF93FF93E091120180911101E81779F02B
:1002B000F0E0E656FE4F80818093C60080911201E7
:1002C0008F5F1AF08093120102C010921201FF9109
:1002D000EF918F910F900FBE0F901F9018951F9266
:1002E0000F920FB60F9211248F939F93EF93FF936A
:1002F000809110019091C600E82FF0E0E65EFE4F7D
:1003000090838F5F1AF08093100102C01092100149
:10031000FF91EF919F918F910F900FBE0F901F90C3
:100320001895A29FB001B39FC001A39F700D811DBE
:100330001124911DB29F700D811D1124911D0895EE
:100340004532510520F4423010F00C94AB01FB0112
:100350001082CB010895BB274A3031F4992322F44F
:10036000BDE2909581959F4F0C94B701BB27FB018F
:100370005527AA27880F991FAA1FA41710F0A41B9E
:1003800083955051B9F7A05DAA3308F0A95DA193F8
:10039000009779F7B111B1931192CB010C94D00170
:1003A000DC01FC01672F71917723E1F7329704C0DC
:1003B0007C916D9370836291AE17BF07C8F3089567
:0403C000F894FFCFDF
:1003C40074657374696E670A0D004552524F52008A
:00000001FF
