:100000000C9434000C9451000C94C8000C945100D2
:100010000C9451000C9451000C9451000C9451001C
:100020000C9451000C9451000C9451000C9451000C
:100030000C9451000C9451000C9451000C945100FC
:100040000C9478000C9451000C9451000C945100C5
:100050000C9453000C9451000C9451000C945100DA
:100060000C9451000C94510011241FBECFEFD8E026
:10007000DEBFCDBF11E0A0E0B1E0EEE8F9E002C0E4
:1000800005900D92A830B107D9F721E0A8E0B1E0C2
:1000900001C01D92A439B207E1F70E9464010C94DB
:1000A000C5040C9400001F920F920FB60F921124FA
:1000B0008F93EF93FF93E091090180910801E81776
:1000C00079F0F0E0EC5EFE4F80818093C600809175
:1000D00009018F5F1AF08093090102C01092090193
:1000E000FF91EF918F910F900FBE0F901F90189579
:1000F0001F920F920FB60F9211242F938F939F93FD
:10010000AF93BF9380910F018823C1F180910A01C1
:1001100090910B01A0910C01B0910D010196A11DD0
:10012000B11D80930A0190930B01A0930C01B09331
:100130000D0180910A0190910B01A0910C01B091E9
:100140000D0126B5BA2FA92F982F8827820F911D50
:10015000A11DB11D8130944DA043B10578F01092DE
:100160000F0110920E018FEF9FEFDC0180931001C1
:1001700090931101A0931201B0931301BF91AF911D
:100180009F918F912F910F900FBE0F901F901895F8
:100190001F920F920FB60F9211242F933F934F93FC
:1001A0005F936F937F938F939F93AF93BF93EF93DF
:1001B000FF9380910E018823B1F180910F0181118D
:1001C0000DC081E080930F0110920A0110920B0183
:1001D00010920C0110920D0116BC25C010920F0157
:1001E00080910A0190910B01A0910C01B0910D0139
:1001F00026B5BA2FA92F982F8827BC01CD01620FF1
:10020000711D811D911D2AE330E040E050E00E9405
:10021000CB012093100130931101409312015093B0
:10022000130110920E01FF91EF91BF91AF919F9139
:100230008F917F916F915F914F913F912F910F908F
:100240000FBE0F901F90189515B885E08A95F1F7AD
:10025000000081E085B980930E0185E38A95F1F76E
:10026000000015B8089590910801E92FF0E0EC5EC8
:10027000FE4F80839F5F1AF09093080108951092BB
:10028000080108951F93CF93DF93EC0110E007C09E
:10029000FE01E20FF31F80810E9433011F5F212FB7
:1002A00030E0FE0101900020E9F73197EC1BFD0BD7
:1002B0002E173F0768F38091C00085FD1092C6009D
:1002C000DF91CF911F910895CF93DF9300D000D09D
:1002D000CDB7DEB71092C50087E68093C40088EDE5
:1002E0008093C10086E08093C20081E284B915B892
:1002F000E9E6F0E0808184608083E99A85B58160D9
:1003000085BD16BCEEE6F0E0808181608083789444
:100310000F2EF0E0EF2EF1E0FF2EF02D8E010F5F9B
:100320001F4F90910E019111FCCF2FEF89E698E1BC
:10033000215080409040E1F700C000000E9424015D
:1003400040911001509111016091120170911301BF
:10035000452B462B472B29F38091100190911101D9
:10036000A0911201B0911301BF93AF939F938F930C
:10037000FF92EF921F930F930E94ED01C8010E941C
:10038000420184E091E00E9442010FB6F894DEBF82
:100390000FBECDBFC6CFA1E21A2EAA1BBB1BFD010B
:1003A0000DC0AA1FBB1FEE1FFF1FA217B307E40754
:1003B000F50720F0A21BB30BE40BF50B661F771FAC
:1003C000881F991F1A9469F760957095809590958C
:1003D0009B01AC01BD01CF010895AEE0B0E0E3EFB9
:1003E000F1E00C949C040D891E8986E08C831A83AD
:1003F00009838FEF9FE79E838D83AE01475E5F4F3A
:100400006F89788DCE0101960E9410022F81388568
:10041000F801E20FF31F10822E96E4E00C94B8046A
:10042000ACE0B0E0E6E1F2E00C948E047C016B01FC
:100430008A01FC0117821682838181FFBDC1CE0132
:1004400001964C01F7019381F60193FD859193FF8D
:1004500081916F01882309F4ABC1853239F493FD92
:10046000859193FF81916F01853229F4B70190E066
:100470000E94F803E7CF512C312C20E02032A0F469
:100480008B3269F030F4803259F0833269F42061A4
:100490002CC08D3239F0803339F4216026C02260BF
:1004A000246023C0286021C027FD27C030ED380F0D
:1004B0003A3078F426FF06C0FAE05F9E300D112432
:1004C000532E13C08AE0389E300D1124332E206243
:1004D0000CC08E3221F426FD6BC1206406C08C3620
:1004E00011F4206802C0883641F4F60193FD85912D
:1004F00093FF81916F018111C1CF982F9F7D9554FA
:10050000933028F40C5F1F4FFFE3F9830DC083364F
:1005100031F0833771F0833509F05BC022C0F801F8
:10052000808189830E5F1F4F44244394512C5401D2
:1005300015C03801F2E06F0E711CF801A080B18087
:1005400026FF03C0652D70E002C06FEF7FEFC5018D
:100550002C870E94ED032C0183012C852F77222EFE
:1005600017C03801F2E06F0E711CF801A080B18055
:1005700026FF03C0652D70E002C06FEF7FEFC5015D
:100580002C870E94E2032C012C852068222E8301F7
:1005900023FC1BC0832D90E048165906B0F4B70128
:1005A00080E290E00E94F8033A94F4CFF50127FC32
:1005B000859127FE81915F01B70190E00E94F803C9
:1005C00031103A94F1E04F1A51084114510471F777
:1005D000E5C0843611F0893639F5F80127FF07C0E8
:1005E00060817181828193810C5F1F4F08C060819F
:1005F0007181072E000C880B990B0E5F1F4F2F7611
:10060000722E97FF09C090958095709561957F4FE8
:100610008F4F9F4F2068722E2AE030E0A4010E9485
:100620003004A82EA81844C0853729F42F7EB22E96
:100630002AE030E025C0F22FF97FBF2E8F36C1F0BF
:1006400018F4883579F0B4C0803719F0883721F074
:10065000AFC02F2F2061B22EB4FE0DC08B2D846051
:10066000B82E09C024FF0AC09F2F9660B92E06C07D
:1006700028E030E005C020E130E002C020E132E0B7
:10068000F801B7FE07C060817181828193810C5FA0
:100690001F4F06C06081718180E090E00E5F1F4FA8
:1006A000A4010E943004A82EA818FB2DFF777F2EEE
:1006B00076FE0BC0372D3E7FA51450F474FE0AC0A1
:1006C00072FC08C0372D3E7E05C0BA2C372D03C002
:1006D000BA2C01C0B52C34FF0DC0FE01EA0DF11D8E
:1006E0008081803311F4397E09C032FF06C0B39493
:1006F000B39404C0832F867809F0B39433FD13C0FC
:1007000030FF06C05A2CB31418F4530C5B18B32CEA
:10071000B31468F4B70180E290E03C870E94F803CC
:10072000B3943C85F5CFB31410F43B1801C0312CC1
:1007300034FF12C0B70180E390E03C870E94F803C9
:100740003C8532FF17C031FD03C088E790E002C04E
:1007500088E590E0B7010CC0832F867859F031FF0F
:1007600002C08BE201C080E237FD8DE2B70190E06C
:100770000E94F803A51438F4B70180E390E00E94CA
:10078000F8035A94F7CFAA94F401EA0DF11D808181
:10079000B70190E00E94F803A110F5CF332009F4CF
:1007A00051CEB70180E290E00E94F8033A94F6CF70
:1007B000F7018681978102C08FEF9FEF2C96E2E1CF
:1007C0000C94AA04FC010590615070400110D8F708
:1007D000809590958E0F9F1F0895FC016150704089
:1007E00001900110D8F7809590958E0F9F1F089566
:1007F0000F931F93CF93DF93FB01238121FD03C050
:100800008FEF9FEF28C022FF16C0468157812481B9
:1008100035814217530744F4A081B1819D012F5FB8
:100820003F4F318320838C93268137812F5F3F4F49
:100830003783268310C0EB01092F182F0084F18520
:10084000E02D0995892BE1F68E819F8101969F838A
:100850008E83812F902FDF91CF911F910F9108955B
:10086000FA01AA27283051F1203181F1E8946F93E1
:100870006E7F6E5F7F4F8F4F9F4FAF4FB1E03ED087
:10088000B4E03CD0670F781F891F9A1FA11D680F25
:10089000791F8A1F911DA11D6A0F711D811D911D58
:1008A000A11D20D009F468943F912AE0269F1124CD
:1008B0003019305D3193DEF6CF010895462F477031
:1008C000405D4193B3E00FD0C9F7F6CF462F4F708C
:1008D000405D4A3318F0495D31FD4052419302D0EA
:1008E000A9F7EACFB4E0A695979587957795679590
:1008F000BA95C9F700976105710508959B01AC0190
:100900000A2E06945795479537952795BA95C9F7B6
:10091000620F731F841F951FA01D08952F923F9291
:100920004F925F926F927F928F929F92AF92BF92FF
:10093000CF92DF92EF92FF920F931F93CF93DF93AB
:10094000CDB7DEB7CA1BDB0B0FB6F894DEBF0FBE08
:10095000CDBF09942A88398848885F846E847D8455
:100960008C849B84AA84B984C884DF80EE80FD8057
:100970000C811B81AA81B981CE0FD11D0FB6F894CD
:0E098000DEBF0FBECDBFED010895F894FFCF8E
:08098E00256C64000A0D000055
:00000001FF
